{
  "contractName": "FileVerify",
  "abi": [
    {
      "inputs": [
        {
          "internalType": "bytes32",
          "name": "merkleRoot_",
          "type": "bytes32"
        }
      ],
      "payable": false,
      "stateMutability": "nonpayable",
      "type": "constructor"
    },
    {
      "constant": true,
      "inputs": [
        {
          "internalType": "uint256",
          "name": "path",
          "type": "uint256"
        },
        {
          "internalType": "bytes32[]",
          "name": "witnesses",
          "type": "bytes32[]"
        },
        {
          "internalType": "bytes",
          "name": "file",
          "type": "bytes"
        }
      ],
      "name": "verify",
      "outputs": [
        {
          "internalType": "bool",
          "name": "",
          "type": "bool"
        }
      ],
      "payable": false,
      "stateMutability": "view",
      "type": "function"
    }
  ],
  "bytecode": "0x608060405234801561001057600080fd5b506040516103a63803806103a68339818101604052602081101561003357600080fd5b8101908080519060200190929190505050806000819055505061034b8061005b6000396000f3fe608060405234801561001057600080fd5b506004361061002b5760003560e01c806310e7b18414610030575b600080fd5b6101876004803603606081101561004657600080fd5b81019080803590602001909291908035906020019064010000000081111561006d57600080fd5b82018360208201111561007f57600080fd5b803590602001918460208302840111640100000000831117156100a157600080fd5b919080806020026020016040519081016040528093929190818152602001838360200280828437600081840152601f19601f8201169050808301925050505050505091929192908035906020019064010000000081111561010157600080fd5b82018360208201111561011357600080fd5b8035906020019184600183028401116401000000008311171561013557600080fd5b91908080601f016020809104026020016040519081016040528093929190818152602001838380828437600081840152601f19601f8201169050808301925050505050505091929192905050506101a1565b604051808215151515815260200191505060405180910390f35b6000806101ad8361023f565b905060008090505b845181101561022f576001600287816101ca57fe5b0614156101f5576101ee8582815181106101e057fe5b6020026020010151836102cb565b9150610215565b6102128286838151811061020557fe5b60200260200101516102cb565b91505b6002868161021f57fe5b04955080806001019150506101b5565b5060005481149150509392505050565b60008082604051602001808360ff1660ff1660f81b815260010182805190602001908083835b602083106102885780518252602082019150602081019050602083039250610265565b6001836020036101000a03801982511681845116808217855250505050505090500192505050604051602081830303815290604052805190602001209050919050565b600060018383604051602001808460ff1660ff1660f81b815260010183815260200182815260200193505050506040516020818303038152906040528051906020012090509291505056fea265627a7a723158201fd54b79bb67fbd25eaaaa0597e1451c5ed2203cfcdf491187e8a8aea61412db64736f6c63430005100032",
  "source": "pragma solidity ^0.5.0;\n\ncontract FileVerify {\n    bytes32 merkleRoot;\n\n    constructor(bytes32 merkleRoot_) public {\n        merkleRoot = merkleRoot_;\n    }\n\n    function leafHash(bytes memory leaf) private pure returns(bytes32) {\n        return keccak256(abi.encodePacked(uint8(0x00), leaf));\n    }\n\n    function nodeHash(bytes32 left, bytes32 right) private pure returns(bytes32) {\n        return keccak256(abi.encodePacked(uint8(0x01), left, right));\n    }\n\n    function verify(uint256 path, bytes32[] memory witnesses, bytes memory file) public view returns(bool) {\n        bytes32 node = leafHash(file);\n        \n        for (uint i = 0; i < witnesses.length; i++) {\n            if(path % 2 == 1) {\n                node = nodeHash(witnesses[i], node);\n            } else {\n                node = nodeHash(node, witnesses[i]);\n            }\n            \n            path /= 2;\n        }\n        \n        return node == merkleRoot;\n    }\n}\n",
  "sourcePath": "/home/jason/Documents/Github/merkle-file-share/truffle/contracts/FileVerify.sol",
  "compiler": {
    "name": "solc",
    "version": "0.5.16+commit.9c3226ce.Emscripten.clang"
  },
  "schemaVersion": "3.0.21",
  "updatedAt": "2020-03-30T01:04:54.276Z",
  "devdoc": {
    "methods": {}
  },
  "userdoc": {
    "methods": {}
  }
}